:020000040800F2
:1000000028100020890100089101000893010008D0
:100010009501000897010008990100080000000000
:100020000000000000000000000000009B0100082C
:100030009D010008000000009F010008ED0C000871
:10004000A3010008A3010008A3010008A301000800
:10005000A3010008A3010008A3010008A3010008F0
:10006000A3010008A3010008A3010008A3010008E0
:10007000A3010008A3010008A3010008A3010008D0
:10008000AD030008ED03000869020008A3010008A1
:10009000A3010008A3010008A3010008A3010008B0
:1000A000A3010008A3010008A3010008A3010008A0
:1000B000A3010008A3010008A90F0008A30100087C
:1000C000C1060008A3010008A3010008A30100085D
:1000D000A3010008B5100008A3010008A30100084F
:1000E000A3010008A3010008A301000800F002F822
:1000F00000F03AF80AA090E8000C82448344AAF188
:100100000107DA4501D100F02FF8AFF2090EBAE885
:100110000F0013F0010F18BFFB1A43F0010318473B
:100120002032000040320000103A24BF78C878C165
:10013000FAD8520724BF30C830C144BF04680C60ED
:10014000704700000023002400250026103A28BF35
:1001500078C1FBD8520728BF30C148BF0B60704739
:100160001FB51FBD10B510BD00F048F81146FFF7D0
:10017000F7FF01F06BF900F066F803B4FFF7F2FF48
:1001800003BC00F069F800000948804709480047AF
:10019000FEE7FEE7FEE7FEE7FEE7FEE7FEE7FEE737
:1001A000FEE7FEE704480549054A064B7047000094
:1001B000E50E0008ED000008280A002028100020A5
:1001C000280C0020280C0020002800DA404270474C
:1001D00070477047704710B500F008F8006810BD10
:1001E00010B5044600F002F8046010BD00487047E6
:1001F0000800002000487047080000207546FFF7FF
:10020000F9FFAE4605006946534620F007008546D3
:1002100018B020B5FFF7C6FFBDE820404FF000063C
:100220004FF000074FF000084FF0000BAC46ACE871
:10023000C009ACE8C009ACE8C009ACE8C00921F0CD
:1002400007018D46704710B50446AFF30080204685
:10025000BDE81040FFF791BF01491820ABBEFEE793
:10026000260002007047000080B542F20040C4F250
:1002700001000068800700282CD5FFE742F23C40CF
:10028000C4F2010000686FF31F3002F046FA40F636
:100290000002C6F2206246F26663C3F64A7302F0B9
:1002A0008BFA01F0DBFF014640F61C20C2F2000091
:1002B000016000680021C4F2C82102F037FE00216D
:1002C000CCF2482102F0B8FD40F61021C2F2000144
:1002D0000860FFE742F20041C4F20101002008601B
:1002E00080BD000080B541F21801C4F20201086827
:1002F00040F00400086040F60002C4F201021068F9
:1003000020F0C000106041F20402C4F20202106842
:100310001060086840F40070086042F20841C4F2BE
:100320000101086840F004000860FFE742F208405D
:10033000C4F2010000684007002801D4FFE7F5E798
:10034000122000F0F5FF42F21041C4F20101082032
:1003500008602020086042F20441C4F201010860F4
:1003600042F20841C4F20101086820F4E04008604C
:10037000086840F400500860086840F00100086018
:10038000086840F40040086042F23841C4F20101BC
:10039000086820F440100860086820F4782008609D
:1003A000086840F40040086080BD00006C21C4F281
:1003B0000201086820F001000860FFE745F21440E0
:1003C000C4F20000008808B9FFE7F7E745F20041F2
:1003D000C4F20001088840F4007008800421C4F2CF
:1003E0000201086840F400100860704780B582B0D0
:1003F0008021C4F20201086820F00100086045F283
:100400000041C4F20001088840F400700880042113
:10041000C4F20201086840F00070086000200090FB
:10042000019040F6C810C2F20000017801910199D4
:10043000490001914178C909417041780198084308
:100440000190019802F05AFD02F0CAFC009A0023C4
:10045000C3F6E07302F0B0F901F000FF40F614219A
:10046000C2F20001086002B080BD000080B582B019
:1004700041F21401C4F20201086840F00100086072
:100480006C21C4F20201086840F08000086008682E
:1004900040F0100008607422C4F2020245F21040DD
:1004A000C4F2000001901060086840F0020008608B
:1004B000102000F025FF01988021C4F202010A6893
:1004C00042F080020A608822C4F2020210600868CA
:1004D00040F002000860112000F012FF02B080BD61
:1004E00082B001908DF8031001988C21C4F20201B2
:1004F00008609DF803008421C4F202010860802195
:10050000C4F20201086840F00100086002B07047C0
:1005100082B001908DF8031001987821C4F2020195
:1005200008609DF803007021C4F2020108606C218C
:10053000C4F20201086840F00100086002B0704790
:1005400082B0019000915821C4F20201086820F0A5
:100550000100086001986422C4F202021060009851
:100560005C22C4F202021060086840F001000860DA
:1005700002B0704780B541F21401C4F2020108686C
:1005800040F0010008604421C4F20201086840F014
:1005900080000860086840F0100008604C21C4F238
:1005A000020143F60400C4F2010008606021C4F2B5
:1005B000020108605821C4F20201086840F080007E
:1005C000086040F6DC10C2F200003221FFF7B8FFED
:1005D00080BD000081B00090009840F20001C2F29E
:1005E000000109684DF68362C4F21B32A1FB0221AF
:1005F000890C48434EF21401CEF2000108604EF21D
:100600001801CEF200010A2008604EF21001CEF26D
:100610000001086840F007000860FFE74EF2100094
:10062000CEF200000068C003002801D4FFE7F5E720
:100630004EF21001CEF20001086820F001100860AF
:1006400001B0704781B00090009840F20001C2F202
:10065000000109684DF68362C4F21B32A1FB02213E
:10066000890C48434EF21401CEF2000108604EF2AC
:100670001801CEF200010A2008604EF21001CEF2FD
:100680000001086840F007000860FFE74EF2100024
:10069000CEF200000068C003002801D4FFE7F5E7B0
:1006A0004EF21001CEF20001086820F0011008603F
:1006B00001B0704740F62020C2F200000068704789
:1006C00045F21440C4F200000088B8B1FFE745F2DB
:1006D0000041C4F20001088840F4007008806C21D9
:1006E000C4F20201086820F0010008608021C4F211
:1006F0000201086820F001000860FFE77047000071
:1007000080B541F21C01C4F20201086840F40010F7
:10071000086041F20401C4F20201086840F48060FC
:10072000086041F21801C4F20201086840F00800B4
:10073000086040F60041C4F20101086840F04060E2
:100740000860086840F040700860086840F0404069
:100750000860086840F04050086045F20441C4F267
:100760000001088840F480500880088840F4006048
:10077000088045F21C42C4F20002108840F0640078
:10078000108045F22042C4F2000248201080088800
:1007900040F480700880202000F0B2FD45F2004156
:1007A000C4F20001088840F00100088080BD00000C
:1007B00080B5192000F01EF81A2000F051F880BD15
:1007C00080B5FFE745F21840C4F2000000888007BA
:1007D000002801D5FFE7F5E7902000F0B9F940F6D1
:1007E000D210C2F20000002101700121FFF790FE3B
:1007F00080BD000080B582B08DF80700FFE745F2AC
:100800001840C4F2000000888007002801D5FFE7E7
:10081000F5E7902000F09CF940F6D210C2F20000FB
:10082000022101709DF80710417080218170032121
:10083000FFF76EFE02B080BD80B545F20041C4F204
:100840000001088840F480600880912000F080F961
:1008500040F6C810C2F200000221FFF741FE80BD41
:1008600080B582B08DF80700FFE745F21840C4F26A
:10087000000000888007002801D5FFE7F5E79020F9
:1008800000F066F940F6D210C2F2000003210170B8
:100890009DF80720427000228270FFF739FE02B0F7
:1008A00080BD000080B58AB0ADF82600089107929F
:1008B00040F60C41C4F201010491086820F02000C8
:1008C00008604FF47A700590FFF784FE03208DF8DE
:1008D0001B000DF11B0002900121019140F64052D6
:1008E000C0F20302039200F067F80199039A02989C
:1008F0009DF827308DF81B3000F05EF80199039ABF
:100900000298BDF826308DF81B3000F055F8039B97
:100910000899079A084600F0ABF8049A0598116800
:1009200041F020011160FFF755FE0AB080BD0000C4
:1009300081B041F21801C4F20201086840F00100E0
:100940000860086840F00C00086040F60042C4F2FD
:100950000102106820F470001060106840F48010EC
:10096000106040F60002C4F2010210684FF6FF73F7
:10097000C3F23F331840106010680023CBF2B0433D
:1009800018431060086840F48050086043F200018A
:10099000C4F20101088800F451700880088840F012
:1009A0006400088043F20401C4F20101088820F0C9
:1009B000FF00088001B0704780B586B004900391B5
:1009C000029203980090FFF775FE019043F2000039
:1009D000C4F20100008800F04000402809D0FFE781
:1009E00043F20001C4F20101088840F04000088091
:1009F000FFE7FFE7009828B3FFE743F20800C4F2DF
:100A000001000088800700280ED5FFE704980078D1
:100A100043F20C01C4F201010880049801300490F3
:100A20000098013800900CE0FFF744FE0199401A4D
:100A30000299884204D9FFE701208DF8170012E0DF
:100A4000FFE7D7E7FFE743F20800C4F201000088A0
:100A50000006002801D5FFE7F5E743F20C00C4F2D9
:100A600001000088FFE79DF8170006B080BD000078
:100A700080B58CB00A900991089207930898069067
:100A8000069805900120049000200390FFF712FEC5
:100A90000290FFE706990120019031B9FFE7059820
:100AA000002818BF01200190FFE70198C007002827
:100AB00049D0FFE70498E0B1FFE743F20800C4F231
:100AC000010000888007002813D5FFE7069880B151
:100AD000FFE70A98007843F20C01C4F20101088094
:100AE0000A9801300A900698013806900020049078
:100AF000FFE743F20800C4F201000088C00798B184
:100B0000FFE7059880B1FFE743F20C00C4F2010053
:100B100000880999087009980130099005980138F2
:100B2000059001200490FFE7FFF7C4FD03900398B0
:100B30000299401A0799884204D9FFE701208DF8ED
:100B40002F0000E0A6E79DF82F000CB080BD00004C
:100B500081B08DF8030045F20041C4F2000108881D
:100B600040F480700880FFE745F21440C4F20000B2
:100B70000088C00708B9FFE7F6E745F21440C4F261
:100B8000000000889DF8030045F21041C4F2000106
:100B90000880FFE745F21440C4F200000088800797
:100BA000002801D4FFE7F5E745F21440C4F2000045
:100BB000008845F21840C4F20000008801B0704778
:100BC00080B500F001F880BD84B000200390029051
:100BD00041F20001C4F20201086840F4803008606C
:100BE000FFE741F20000C4F20200006800F40030A8
:100BF0000290039801300390FFE7029900200190D2
:100C000039B9FFE70398B0F5A06018BF0120019043
:100C1000FFE70198C0070028E3D1FFE741F2000099
:100C2000C4F2020000688003002803D5FFE701201A
:100C3000029002E000200290FFE70298012851D1C3
:100C4000FFE742F20001C4F20201086840F0100020
:100C50000860086820F003000860086840F002009F
:100C6000086041F20401C4F20201009108680860C2
:100C700008680860086840F480600860086820F42C
:100C80007C100860086840F4E810086041F2000138
:100C9000C4F20201086840F080700860FFE741F28A
:100CA0000000C4F2020000688001002801D4FFE7C0
:100CB000F5E741F20401C4F20201086820F00300E4
:100CC0000860086840F002000860FFE741F2040095
:100CD000C4F20200006800F00C00082801D0FFE711
:100CE000F4E700E0FFE704B07047000040F6202181
:100CF000C2F20001086801300860704741F200014B
:100D0000C4F20201086840F001000860FFE741F208
:100D10000000C4F2020000688007002801D4FFE749
:100D2000F5E741F20401C4F2020100200860FFE788
:100D300041F20400C4F20200006810F00C0F01D070
:100D4000FFE7F5E741F20001C4F20201086820F074
:100D50008070086041F20402C4F20202106820F4BC
:100D60007C101060106840F4A0101060086840F01B
:100D700080700860FFE741F20000C4F202000068E2
:100D80008001002802D4FFE700BFF4E741F204012C
:100D9000C4F20201086820F003000860086840F00F
:100DA00002000860FFE741F20400C4F2020000689C
:100DB00000F00C00082801D0FFE7F4E770470000BE
:100DC00084B0002003900290019041F20400C4F22C
:100DD0000200006800F00C0003900398009040B1FE
:100DE000FFE7009804280ED0FFE70098082814D0E9
:100DF00056E040F20001C2F2000141F20020C0F2D0
:100E00007A00086056E040F20001C2F2000141F2AF
:100E10000020C0F27A0008604CE041F20400C4F205
:100E20000200016801F470110291006800F4803042
:100E300001900299022000EB91400290019860B964
:100E4000FFE7029840F60011C0F23D01484340F22E
:100E50000001C2F20001086021E041F20400C4F286
:100E600002000068800300280CD5FFE7029840F6D6
:100E70000011C0F23D01484340F20001C2F20001FE
:100E800008600BE0029841F20021C0F27A01484369
:100E900040F20001C2F200010860FFE7FFE709E04D
:100EA00040F20001C2F2000141F20020C0F27A00DB
:100EB0000860FFE741F20400C4F202000068C0B21B
:100EC000010943F23030C0F60000405C0390039A01
:100ED00040F20001C2F200010868D040086004B08E
:100EE0007047000080B541F20002C4F202021068AF
:100EF00040F00100106041F20401C4F202010868F0
:100F00000023CFF6FF031840086010684FF6FF7308
:100F1000CFF6F66318401060106820F4802010604F
:100F2000086820F4FE00086041F20801C4F20201E2
:100F30004FF41F000860FFF743FE4EF60851CEF253
:100F400000014FF00060086080BD000041F21C010C
:100F5000C4F20201086840F0010008604FF08041CF
:100F60000120088040F20000C2F20000006841F257
:100F70005971CDF2B711A0FB01014FF0FF3000EB2A
:100F800051302821C4F2000108802C21C4F2000154
:100F90004FF4FA6008800421C4F20001088840F090
:100FA000200008807047000080B540F61001C4F2B0
:100FB0000001088820F001000880FFF73DFC00F0E8
:100FC000E7F900F0A3FA40F62420C2F2000000681E
:100FD000B0F5957F07DBFFE740F62421C2F2000160
:100FE00000200860FFE740F61420C2F2000000680D
:100FF00040F6242CC2F2000CDCF80020511CCCF886
:10100000001040F21851C2F2000141F8220040F6EF
:101010001020C2F200000068DCF80020531CCCF85D
:10102000003001EB8202C2F8900140F61820C2F2B3
:1010300000000068DCF80020531CCCF8003001EB05
:101040008201C1F8200380BD80B541F21C01C4F2C9
:101050000201086840F00400086040F60001C4F294
:1010600000010120088040F20000C2F20000006888
:1010700041F25971CDF2B711A0FB01014FF0FF30E1
:1010800000EB513040F62801C4F20001088040F620
:101090002C01C4F2000140F6B830088040F60C0183
:1010A000C4F20001088840F0010008801E2000F012
:1010B00027F980BD80B582B040F6DC10C2F2000096
:1010C000007831280AD1FFE740F26801C2F200013E
:1010D00000204FF49662FFF7E5FB1CE00020019032
:1010E000FFE70198B0F5967F14DAFFE7019840F228
:1010F0001851C2F2000101EB80018000042200F0CF
:1011000087F841F28830FFF79DFAFFE70198013038
:101110000190E6E7FFE743F60000C4F20100008813
:1011200043F60400C4F20100008840F6DC10C2F26D
:1011300000003221FFF704FA02B080BD80B541F211
:101140001801C4F20201086840F004000860086851
:1011500040F48040086040F60401C4F201010868D0
:1011600020F040000860086840F0B000086008689F
:1011700020F440600860086840F400600860086877
:1011800020F44070086040F61001C4F201010868C4
:1011900040F48060086043F60802C4F2010210883F
:1011A0000020108040F20001C2F20001096848F2FC
:1011B000B513C1F64E33A1FB0313118841EA932105
:1011C000118043F60C01C4F201010A8842F4005276
:1011D0000A800A8842F00C020A8043F61002C4F228
:1011E0000102108043F61402C4F20102108010883C
:1011F00040F080001080108840F040001080088887
:1012000040F010000880252000F0AAF880BD000002
:1012100080B588B0ADF81E000691059201200090BF
:1012200000F03EF840F60C41C4F201010391086859
:1012300020F0200008604FF47A70FFF7CBF9009996
:1012400002208DF813000DF11300019040F640527A
:10125000C0F203020292FFF7AFFB0099029A0198D5
:101260009DF81F308DF81330FFF7A6FB0099029A06
:101270000198BDF81E308DF81330FFF79DFB029AE0
:1012800006980599FFF798FB4FF47A60FFF7A2F9EB
:101290000399086840F02000086008B080BD000095
:1012A00080B582B08DF8070000208DF8060040F66A
:1012B0000C41C4F20101086820F0200008609DF88C
:1012C0000700012804D1FFE706208DF8060003E09F
:1012D00004208DF80600FFE70DF10600012140F61D
:1012E0004052C0F20302FFF767FB40F60C41C4F224
:1012F0000101086840F02000086002B080BD0000D5
:1013000081B08DF803009DF9030000280ED4FFE79B
:101310009DF9031001F01F02012090404A094EF28E
:101320000011CEF2000141F82200FFE701B0704742
:1013300081B08DF803009DF9030000280ED4FFE76B
:101340009DF9031001F01F02012090404A094EF25E
:101350000011CEF2000141F82200FFE701B0704712
:1013600081B08DF803009DF9030000280ED4FFE73B
:101370009DF9031001F01F02012090404A094EF22E
:101380000011CEF2000141F82200FFE701B07047E2
:1013900080B500F02BF8CC2000F078F9442000F064
:1013A00075F980BD41F21801C4F20201086840F0ED
:1013B0000400086040F61001C4F201014FF48030CF
:1013C000086040F60001C4F20101086820F0030043
:1013D0000860086840F002000860086820F00C000F
:1013E0000860086840F004000860704780B582B06B
:1013F00040F61001C4F201010091086840F4803009
:10140000086040F28A20FFF71DF90099086840F053
:10141000010008606420FFF715F940F60800C4F2E7
:1014200001000068C00720B1FFE700208DF8070029
:1014300007E04FF4FA60FFF705F901208DF8070087
:10144000FFE79DF8070002B080BD000080B582B0C4
:1014500000200190FFF752FCFFF7B2FCFFF750F9B4
:10146000FFF704F8FFF7A4F9FFF7AAF9FEF73AFF30
:10147000FFF76CFDFFF796FFFFF7E6FDFFF758FA61
:10148000FFF75CFEFFF776F8FFE7FEE780B582B076
:1014900000208DF807008DF80600FFE79DF8060094
:1014A000411C8DF8061007282BDCFFE79DF807008C
:1014B00040088DF8070040F61001C4F201010091C8
:1014C000086840F4803008600220FFF7BBF80099FC
:1014D000086840F0010008600120FFF7B3F840F60B
:1014E0000800C4F201000068C00730B1FFE79DF8B2
:1014F000070080308DF80700FFE74620FFF7A2F8CD
:10150000CCE79DF8070002B080BD000080B58CB02C
:10151000FFF76CFFCC2000F0B9F8BE2000F0B6F861
:1015200040F61821C2F20001002008608DF82F005B
:101530008DF82E008DF82D006FF004000A90FFF753
:10154000A5FF8DF82F00FFF7A1FF8DF82E00FFE714
:101550009DF82D00411C8DF82D1007285CDCFFE75D
:101560000A9801300A909DF82F00C00700284DD03E
:10157000FFE70A98B0F1FF3F28DCFFE70A98FEF783
:1015800023FE01F0B3F802460B46002006904FF010
:10159000804100F047F9024606980B460021C3F649
:1015A000F07100F049FF0790089140F61820C2F250
:1015B00000000990006801F013FC079A089B00F0F6
:1015C0007FFE00F04BFE099908601EE00A98FEF7C6
:1015D000FBFD01F08BF802460B4600204FF08041E6
:1015E00000F020F90390049140F61820C2F20000A8
:1015F0000590006801F0F4FB039A049B00F060FE84
:1016000000F02CFE05990860FFE7FFE79DF82F002A
:1016100040088DF82F009BE700208DF82D00FFE794
:101620009DF82D00411C8DF82D1002282BDCFFE7C2
:101630000A9801300A909DF82E00C007E8B1FFE734
:101640000A9801F053F802460B4600204FF0804103
:1016500000F0E8F80090019140F61820C2F2000076
:101660000290006801F0BCFB009A019B00F028FE8C
:1016700000F0F4FD02990860FFE79DF82E00400895
:101680008DF82E00CCE70CB080BD000080B582B094
:101690008DF8070000208DF80600FFE79DF8060092
:1016A000411C8DF80610072831DCFFE740F61001D9
:1016B000C4F20101086840F4803008600520FEF79C
:1016C000C1FF9DF80700C00760B1FFE740F61001B9
:1016D000C4F20101086840F0010008604620FEF7EE
:1016E000B1FF0BE04620FEF7ADFF40F61001C4F25B
:1016F0000101086840F001000860FFE70920FEF7DB
:10170000A1FF9DF8070040088DF80700C6E702B06A
:1017100080BD490050EAC12018BF04204A0D18BFFF
:1017200040F0010040F2FF72B2EB515F08BF40F0A1
:101730000200012808BF052070472DE9F0414F1E27
:1017400000EBC7010446D1E9000115461E4637F0FB
:1017500006020DD02A46334601F02EF87F1E04EB18
:10176000C703D3E9002300F0ABFD37F00602F1D147
:10177000022F25D0042F13D0062F18BFBDE8F0810B
:101780002A46334601F018F8D4E90A2300F098FD00
:101790002A46334601F010F8D4E9082300F090FD02
:1017A0002A46334601F008F8D4E9062300F088FD04
:1017B0002A46334601F000F8D4E9042300F080FD06
:1017C0002A46334600F0F8FFD4E9022300F078FD02
:1017D0002A46334600F0F0FFD4E90023BDE8F0418B
:1017E00000F06EBD002213461046014900F024BEF1
:1017F0000000F03F00F064BD002213461046114681
:1018000000F01ABE40F2013200204FF0E04101F03A
:1018100000BD0000024A0020110701F0FABC0000E0
:1018200001FDFFFF2DE9F04D1D460C4694B0174613
:1018300021F0004123F00043002814BF4FF0010CB9
:101840004FF0000C0CEB440CFB4A0CEB02064FEA89
:10185000620C66452BD33E0018BF012606EB4506F9
:101860001644F64A964222D3F54A53EA070C02D0B0
:10187000944205D148B914B000201146BDE8F08D5E
:10188000002808BF4FF0000C01D04FF0010C0CEB0A
:10189000440212F5001F0AD8002F14BF4FF0010CAC
:1018A0004FF0000C0CEB450212F5001F07D914B0E5
:1018B0003A462B462146BDE8F04DFFF79BBF00227C
:1018C000DFF880A3002CB8BF534526DADFF878C3D1
:1018D0006345A8BF022220DADFF864C39C451CDC04
:1018E000DFF868C30CEB235CBCF1140F08DDCCF10E
:1018F000340627FA06FC0CFA06F6BE420DD108E0C3
:101900005FB9CCF1140623FA06FC0CFA06F69E42E7
:1019100003D10CF00102C2F1020251EA000C19D10C
:10192000002D17DA002C18BF022A01D0012A07D097
:101930000220FEF755FC14B0BDE8F04DFFF752BF92
:101940000220FEF74DFCFFF74DFF14B081F000417F
:10195000BDE8F08DB7F1000C6CD1534525D104F1F1
:10196000804212F5801201BF00280020B44914B053
:1019700008BFBDE8F08DB248884207DC002DA1BF4A
:101980006046294614B0BDE8F08D07E0002DBFBFCA
:10199000604685F0004114B0BDE8F08DAC49794453
:1019A000D1E9000114B0BDE8F08DDFF894C26345C1
:1019B00025D1002D1FDA19B1514512D1D8B909E04E
:1019C000002840F0F6829F4A214614B062F31E01BF
:1019D000BDE8F08D0020214614B060F31E01BDE883
:1019E000F08D08DA14B02346BDE8F04D0246002021
:1019F000614600F021BD14B02146BDE8F08D51458F
:101A000018DAB5F1804F0DD0A5F1005CBCF1FF5C98
:101A100010D1B4F1000C0DDB14B06146BDE8F04DFF
:101A200000F0F6BB234614B00246BDE8F04D19465F
:101A300000F0C2BE060024F0004C3BD1D9B15145A4
:101A400033D1002C06DD002DA1BF0020514614B07B
:101A5000BDE8F08D002C01DD002D1BDB002C13DA1E
:101A6000002D11DB012A4FF0000014BF75497949A0
:101A700014B0BDE8F08D022A18BF002C0AD0012A4C
:101A800008D1002C06DA0AE0002CB8BF002D11DACC
:101A9000012A04D0002014B00146BDE8F08D14B036
:101AA00000204FF00041BDE8F08DA1F14050B0F1B1
:101AB0007F601AD0012000EBE47050EA020421D0CC
:101AC0005F4C521E4FF0000B104304BF4FF0000B51
:101AD000614C624883427DDD614A6248934229DD60
:101AE000884217DB002D2FDB41E0002C00DA4AB1E1
:101AF000022A0CBF01204FF0FF3014B0BDE8F04DBA
:101B000000F0F4BD0120FEF76BFB14B0BDE8F04D12
:101B1000FFF772BE4A4A8A420CDC002D14DC022018
:101B2000FEF75EFBFFF776FE61F31E0414B021465C
:101B3000BDE8F08D814202DA002D18DA04E0404B56
:101B4000994220DD002D12DD0220FEF749FBFFF750
:101B500059FE05460E46002253465846214600F0DF
:101B60002BFE14B066F31E012846BDE8F08D02205E
:101B7000FEF736FBFFF74EFE0A46214614B062F32D
:101B80001E01BDE8F08D00223046614601F03AF8B2
:101B9000064688466FF0010201F03BFB4FF05532DC
:101BA000314B00F03DFF3246434600F005FE002277
:101BB0002E4B00F035FF8A463246434602901046CF
:101BC000194600F0F9FD5346029A00F0F5FD8246F1
:101BD000324600E054E0059143464FF0C0402449AE
:101BE00000F0EAFDCDE90C01224A214B504605994F
:101BF00000F0E2FD824601911F4A204B30464146EB
:101C000000F0DAFD5246019B00F0FCFF82460B46D5
:101C100002460991DDE90C0100F052FBDDE90C23DD
:101C200000268846304600F0EDFF5246099B00F042
:101C3000F7FE024600F07EB9FFFF1F00FFFF0F0016
:101C40000000F03F0000F07F0000404301FCFFFF78
:101C5000861900000000F0FF0000F0BF0000E04126
:101C60000000F043FFFFEF3F5555D53F0000E03F38
:101C70004715F73FFE822B6544DF5DF80BAE543EFF
:101C80000020B1F5801F07DA35223046614601F0A9
:101C9000C0FA06466FF0340000EB2150A0F2FF308E
:101CA0000190C1F3130040F07F6141F04051029177
:101CB000FE498842D8BF002004DDFD498142C8BFEB
:101CC000012001DD0F9008E000200F900198401CDA
:101CD00001900298A0F5801002900299F54878448E
:101CE00005910F9900EBC1001290D0E90023304616
:101CF000059900F087FFCDE90C011298D0E9002387
:101D00003046059900F0DCFA02460B460020EA490D
:101D100000F092FB0B46CDE908010246DDE90C011B
:101D200000F04AFD0A90E5488A464FF000087844E2
:101D30000299006810904FF0005040EA61010F983E
:101D400001EB804000F5002112981191D0E90023A9
:101D5000109800F057FF3246059B00F061FE4246A6
:101D6000534600F029FDDDE9102306460391404665
:101D7000514600F021FDDDE90C2300F051FE324612
:101D8000039B00F03FFFDDE9082300F015FD039100
:101D90000A9A129053461046194600F00DFD064669
:101DA0000246C7480B46029106217844FFF7C5FC5E
:101DB000029B3246059108901046194600F0FCFC43
:101DC000059B089A00F0F8FC0646099153464046E8
:101DD00019460A9A00F074FA039B129A00F0ECFC80
:101DE0003246099B00F06CFACDE9080142465346A1
:101DF0001046194600F0E0FC02460B4602910490A2
:101E00000020B04900F05CFADDE9082300F058FA40
:101E10000E464246AB4B404600F0F4FE029B049A4D
:101E200000F0F0FEDDE9082300F0FAFD42460491DF
:101E3000029033461046514600F0BEFCCDE90C013D
:101E400053460A9A0499029800F0B6FC8246009123
:101E5000334642460399129800F0AEFC5246009B6E
:101E600000F02EFA82460B4602460991DDE90C018C
:101E700000F026FADDE90C2300268846304600F003
:101E8000C1FE5246099B00F0CBFDCDE90801434657
:101E900032464FF060408C4900F08EFC824604913F
:101EA000DDE90801894A884B00F086FC0291009028
:101EB000434632468648874900F07EFC029B009AE2
:101EC00000F0FEF9844B7B440F9A03EBC203D3E985
:101ED000002300F0F5F900900291019800F006FC53
:101EE0000E9003915046029B009A049900F0E8F985
:101EF0007A4A7A440F9B02EBC3030993D3E9002388
:101F000000F0DEF9039B0E9A00F0DAF988463046BD
:101F1000039B0E9A00F076FE099BD3E9002300F0A4
:101F200071FE5246049B00F06DFE029B009A00F089
:101F300077FD024600200B4602903846294600F005
:101F40003BFC824603912B4638461946029A00F024
:101F500059FE3246434600F02FFC5246039B00F0E8
:101F6000AFF907468A46324643462946029800F0B2
:101F700023FC05460E463A46534600F0A1F9584A5E
:101F80008846914221DBA8EB020353EA000210D1FC
:101F90002A46334600F036FECDE90310514A524B33
:101FA0003846514600F08CF9DDE9033200F002FDBD
:101FB00021D20220FEF714F9FFF724FC0A4621463D
:101FC00014B062F31E01BDE8F08D484B28F00042CA
:101FD0009A4210D3464A08EB020353EA00027FF408
:101FE000C6AD2A46334600F00DFE3A46534600F091
:101FF000E1FC7FF6BCAD0022019228F000403D4993
:102000003D4A01EB2051824223DA481C4FF48011F3
:1020100021FA00F04044394AC0F30A517A44384B5F
:10202000A1F2FF31CB4020EA0303C0F3130040F4D8
:102030008010C1F11401C84012680190B8F1000F7E
:10204000BCBF404201902846314600F0DBFD05460A
:102050000E462A4633463846514600F031F94FF0D5
:1020600000084246274B4046039100F0A5FBCDE90E
:102070000C01254A254B4046039900F09DFB029137
:1020800000902A4633464046039900F0BBFD3A468D
:10209000534600F0C5FC1E4A1E4B00F08DFB029B10
:1020A000009A00F00DF90746884635E08E98030047
:1020B0007AB60B00BE1500000000F03FF6150000D8
:1020C000221500000000084009C7EE3FFD033ADC7E
:1020D000F5015B14E02F3EBEF6130000BA130000BA
:1020E00000009040FE822B654715973C00CC904045
:1020F00000346F3F01FCFFFF0000E03F08130000C9
:10210000FFFF0F00432EE63F396CA80C615C20BE38
:10211000EF39FAFE422EE63F02460B46DDE90C019E
:1021200000F0CEF8DDE90C2305460E4600F06AFD0E
:102130003A46434600F074FC07462A46334605916A
:102140001046194600F038FB824602462E48884663
:102150000B4605217844FFF7F0FA5246434600F05B
:102160002BFB2A46334600F05BFC80468A463A4603
:1021700028463146059B00F01FFB3A46059B00F0C0
:102180009FF80591009000224FF080434046514651
:1021900000F038FD07460391424653462846314633
:1021A00000F00AFB3A46039B00F046F9059B009AB3
:1021B00000F028FD2A46334600F024FD0022134B90
:1021C00000F02EFC054601980E4601EB0051081563
:1021D000002810DC28463146019A01F01AF8FFF772
:1021E00098FA042808BFFFF715FB28463146019AE4
:1021F00001F00FF805460B4614B02A465846214612
:10220000BDE8F04D00F0D8BAA81100000000F03F82
:102210002DE9F04106460F4600F00EFC041E0D4667
:1022200018BF0120284320F00040C0F17F6000F17A
:10223000E040C00F0ED0301C18BF0120384320F002
:102240000040C0F17F6000F1E040C00F04BF0120FA
:10225000FDF7C6FF20462946BDE8F08121F0004287
:1022600001F00043A2F16052B2F5801F28BFD2F105
:102270007F6C0BD95FEA001C43EAC20242EB50704C
:1022800018BF704728BF20F001007047B2F5801FCB
:10229000BCBF184670474FEA410C1CF5001F02D224
:1022A000084600F00ABF70B500F030FB000000895E
:1022B000FFF7F6BF4FF00040A0F580007047000028
:1022C00010B591EA030F48BF83F0004300F1A284E8
:1022D000841A71EB030C05D2121943EB0C03001B9B
:1022E00061EB0C014FEA1154A4EB135CDFF81CE125
:1022F0001EEA430F18BF9EEA445F00F0748021EA93
:10230000045123EA0E0343F48013DCF1200E32D390
:1023100022FA0CFE10EB0E0023FA0CFE41EB0E012C
:10232000CCF1200E03FA0EFE10EB0E00CCF1200EC5
:1023300051F10001B1F5801F32D201EB045112FAC4
:102340000EF2BDE8104058BF7047401C38BF5FEA2E
:10235000420218BF7047002814BF20F0010041F16D
:1023600000014FEA410313F5001F38BF7047A1F188
:10237000C04100F019BB012A43EB0302ACF1200C71
:10238000DCF11F0E32BF4FF0000E23FA0CF310EBFE
:10239000030041EB0451B4EB115FD0D0A1EB045129
:1023A00001F58011490801EB04515FEA30000ED3BA
:1023B00050F1000038BF12FA0EFE08D1BDE81040FF
:1023C000C9E7401C38BF5FEA4202CAD1C3E7BDE893
:1023D00010404FEA410313F5001F38BF7047A1F1C9
:1023E000C04100F0E1BA9EEA445F08D011EA5E0FF6
:1023F000BDE8104004BF01F0004100207047BDE877
:10240000104070B500F082FA64FBBE3E0000E0FFB1
:1024100002494FF0000000F0CABE00BF0000F87F84
:10242000491058BFC1F140415B1058BFC3F1404350
:102430008B42EFF3008070472DE9C04130B4DFF8E4
:10244000A4C23CEA111418BF3CEA131400F0ED805A
:102450001CEA111481EA030544EAD57418BF1CEA8A
:10246000131500F0C880A4EB050404F17F7404F593
:1024700000344FF0004545EAC12145EAC32341EA53
:10248000505143EA52534FEAC0204FEAC2229942C8
:1024900008BF904200F09D804FEA13650FF244168A
:1024A000765D4FEA134506FB05F7C7F1807706FB1B
:1024B00007F74FEAD737A7FB03687642A7FB06CE9C
:1024C000C8F5803838BFA8F1010807FB08E6A6FB6D
:1024D000028C4FF0000EE6FB03CEDCF1000CCEF1D7
:1024E000004E38BFAEF1010EA6FB0C584FF00007AE
:1024F000E6FB0E87A1FB08C6A0FB07CE16EB0E0677
:102500004FF0000545F10005E1FB076515F1E04ED0
:102510007EBFA4F580345FEA46066D4116F1800760
:1025200045F100054FEA172747EA05674FEA1525E9
:102530004FEA0666A6F1DE46B6F1805F20D938463E
:1025400005EBC47124F0010C01EB0C11BCF1FE6F22
:1025500002D8F0BCBDE8008124425CBF01F5801EBA
:102560009EEAC47F02D4F0BCBDE80081244200F1A1
:102570003980A1F1C041F0BCBDE8004100F014BABF
:102580004FEAD02040EA41504FEAD1214FEAD2220F
:1025900042EA43524FEAD323A7FB028607FB0366B6
:1025A00005FB02661EEA0E0F58BFA6EB0056B6EBFF
:1025B00000564FEA520E4EEAC37E18EB0E0E56EB53
:1025C000530EBCD518EB02085E417F1C55F1000587
:1025D000B5E74FF480154FF000074FF000064FF0BD
:1025E0000008ACE701F1C04101F000414FF00000EC
:1025F000F0BCBDE800810CEA131511EA0C1F00D0F5
:102600000CE013EA0C1F00F026804FF0000081EA76
:10261000030101F00041F0BCBDE80081F0BCBDE861
:10262000004181EA030100F0BFB9F0BCBDE8004100
:1026300070B500F06BF900BF097EFC3E00F007B8F2
:102640004FF0000081EA030101F00041704781EA88
:10265000030100F0A9B9F0BCBDE8004122494FF0E8
:1026600000007047FFFDFBF9F7F5F4F2F0EEEDEB3B
:10267000E9E8E6E4E3E1E0DEDDDBDAD8D7D5D4D380
:10268000D1D0CFCDCCCBCAC8C7C6C5C4C2C1C0BFCC
:10269000BEBDBCBBBAB9B8B7B6B5B4B3B2B1B0AFD2
:1026A000AEADACABAAA9A8A8A7A6A5A4A3A3A2A1B6
:1026B000A09F9F9E9D9C9C9B9A9999989797969571
:1026C00095949393929191908F8F8E8E8D8C8C8B0D
:1026D0008B8A898988888787868585848483838295
:1026E000828181800000FF070000F87F10F0004227
:1026F00048BF4042B0FA80F310FA03F10AD0C3F1A8
:102700001D0303F5806302EB03524FEA415002EBD5
:10271000D12170474FF000007047B0FA80F310FAF3
:1027200003F10AD0C3F11D0303F580634FEA03529E
:102730004FEA415002EBD12170474FF00000704743
:1027400051EA030C17D41CF5801F58BFBCF5801F3D
:1027500000F10680994218BF704708BF9042704749
:1027600007D711F5801F58BF13F5801F19D4994260
:102770007047894270471CF5801F08D5BCF5801F43
:10278000F7D58B4218BF704708BF824270474FF49D
:10279000001C1CEB410F38BF1CEB430F01D28B42D6
:1027A000704770B500F0B2F8922449004FF0005124
:1027B0004FF08053FFF734BE70B5DFF848C11CEA14
:1027C000111E1EBF1CEA13159EEA0C0F95EA0C0F92
:1027D00000F06F8081EA03044EEAD47EAE4421EA21
:1027E0004C1123EA4C1341F4801143F48013AEF1F1
:1027F0007F7EA1FB024CA0FB0365361955EB0C054F
:10280000A1FB034C4CF10003A0FB021C16EB0C06D1
:10281000654153F10003094218BF46F0010613F465
:10282000007F0BD14FEA03314FEA053041EA1551E1
:1028300040EA165034036FF003020AE04FEAC32166
:102840004FEAC52041EA555140EA5650F4026FF074
:10285000020202EB2E4201EB025585EACE710AD04C
:102860005FEA440C18BF24F0004450F1000041F12D
:10287000000120EAD47040F2FE7C624500D270BDB7
:10288000A84214BF4FF080444FF04044002E08BFD0
:102890000024BEF1806FA8BFA1F1C041BDE8704027
:1028A00080F2828001F1C04101F000414FF0000050
:1028B00070470CEA13159EEA0C0F18BF95EA0C0F2F
:1028C00006D081EA030E4FF000000EF0004170BD0B
:1028D00000F01CF88900013E00F007B800F009B8CC
:1028E0004FEA430C5FEA5C5C08D081EA030100F028
:1028F0005BB84FEA410C5FEA5C5CF6D102494FF0ED
:10290000000070470000FF070000F87F0EF1020E84
:102910002EF0030E5EF8046B364205D4012A43EB19
:10292000030515F5001F12D8012841EB010C1CF519
:10293000001F0CD80ED14FEAD17C0CEB4C0C0CF1E3
:10294000020C15F5001F08BF4CEBD37C04E04FF0E0
:10295000080C01E04FEAD37C0CEB4C0526FA05F697
:1029600006F00706B6F1040C06D20EEB860CBDE8A5
:1029700070404CF0010C6047DFE80CF0090B0202DC
:102980004FF00041A1F500214FF0000070BD194645
:102990001046012851EB010418BFD4F5001484BF80
:1029A000002001F0004170BD0808A0F500114FEAB9
:1029B0003101704753EA010C17D41CF5801F58BF32
:1029C000BCF5801F00F106808B4218BF704708BF1E
:1029D0008242704707D713F5801F58BF11F5801F3B
:1029E00019D48B4270479B4270471CF5801F08D555
:1029F000BCF5801FF7D5994218BF704708BF9042B9
:102A000070474FF4001C1CEB430F38BF1CEB410F09
:102A100001D2994270470FB40CBC03BCFFF7C1BE92
:102A200010B591EA030F81F000413FF551AC83F0FE
:102A3000004300F0EFB800002DE9F04101F5801CE3
:102A4000BCF5001FC0F2C3804FEA115C21EA0C51B3
:102A500041F480110CF1FD0C5FEA5C0C0CF5C07CBC
:102A600001D340004941890241EA905187023BA4C9
:102A70008E0EA45D0A0C04FB04F602FB06F6C6F1FA
:102A80004046A4FB0662F60D46EA422606FB06F423
:102A9000A4FB01235242C3F1404338BF5B1EA6FB97
:102AA00002420024E6FB0324D20B42EA4446A6FB82
:102AB0000623A1FB02E2A3FB07E4A4184FF00002E7
:102AC00052F10002E3FB01426442C2F1404E38BFC2
:102AD000AEF1010EA6FB04234FF00002E6FB0E321E
:102AE000A2FB0346B6194FF0000454F10004E2FBC8
:102AF0000264A1FB06E6A4FB07E816EB08064FF00C
:102B0000000858F10008E4FB01687642C8F140581B
:102B100038BFA8F10108A2FB06E4A3FB08E52D19C4
:102B20004FF0000454F10004E2FB0854A1FB05E659
:102B3000A7FB04E818EB06084FF0000656F1000664
:102B4000E1FB048618F1200556F10006A80940EAC9
:102B50008660B109A8F11B0808F03F08B8F10A0F18
:102B60001CD901EB0C51BDE8F08100BFFCF5EEE88B
:102B7000E2DDD8D3CFCBC7C3C0BDB9B6B4B1AEAC1C
:102B8000A9A7A5A3A19F9D9B9A9896959392908F94
:102B90008D8C8B898887868584838281A0FB0068E1
:102BA00000FB01F208EB4208B8EB872807D5341880
:102BB00058EB0104D5D5401C51F10001D1E7341A7E
:102BC00078EB0104CDD4401E71F10001C9E75FEA42
:102BD0004C0C5FEA9C5C0DD105D301F000414FF035
:102BE0000000BDE8F081BDE8F04170B5FFF78EFE52
:102BF0006DDBFFBEBDE8F04101494FF000007047BA
:102C00000000F87F10B591EA030F48BF83F000433E
:102C10003FF55EAB841A71EB030C07D28CF0004CCD
:102C2000121943EB0C03001B61EB0C014FEA11542A
:102C3000A4EB135CDFF8A4E11EEA430F18BF9EEA81
:102C4000445F00F0B48021EA045123EA6E0352424B
:102C5000C3EB6E0338BF5B1EDCF1200E25D322FAD6
:102C60000CFE10EB0E0043FA0CFE41EB0E01CCF112
:102C7000200E03FA0EFE10EB0E00CCF1200E51F1E7
:102C8000000129D401EB045112FA0EF2BDE8104004
:102C900058BF7047401C1CBFB2F1004F704700285E
:102CA0000CBF491C20F00100704712EB020E43EBF1
:102CB000030218BF4FF0010E4EEA4202ACF1200CA5
:102CC000DCF11E0E56D943FA0CFE10EB0E00CCF1CF
:102CD0001E0E51F1FF31D5D50EF1010E12FA0EFE86
:102CE000404141EB010101EB445C5FEA5C5C10D9BF
:102CF00001EB045110EBDE7038BFBEF1004FBDE8B0
:102D0000104018BF704700280CBF491C20F001007C
:102D1000704734D24FEAD42C24F4006411F500112A
:102D20001BD0B1FA81F20B3AA41AA41ED2F12003EF
:102D3000914030FA03F31943904001EBCC7101EB61
:102D40000451002CBDE81040A8BF704701F1C041FC
:102D500001F000414FF000007047B0FA80F310FA24
:102D600003F102D1BDE810407047E41A173C480552
:102D7000C90AE2E701EB0451BDE810407047491071
:102D80004FEA300001EB0451BDE8104002E04FF083
:102D9000000170474A0008BF0042F8D0B2F5001F9A
:102DA00028BF704701F000414FF0000070479EEAD5
:102DB000445F07D011EA5E0FBDE8104004BF002158
:102DC00000207047BDE8104070B5FFF79FFD00BFC1
:102DD00040DFF63E104683F0004170470000E0FF00
:102DE00043004FEAD30C4FEA3C0C43401FBF40075F
:102DF0000CF1605113F0FE4F70471CF0006F03D1CF
:102E00000CF00041002070470CF0004343EA507082
:102E100040EACC0010B500F00AF900BF00000092B3
:102E20004FEA0001FFF7C0BD4FF00041A1F50021BE
:102E30004FF000007047000090EA010F48BF81F09A
:102E4000004100F14681421A3CBF801A89184FEABE
:102E5000D052A2EBD1534FF07F4C1CEA410F18BF68
:102E60009CEA026F00F03B804FF0004C4CEA0020DF
:102E70004CEA012121FA03FC10EB0C0C1ED202F1EA
:102E8000FF325FEA1C2040EBC25038BF70471CF095
:102E90007F0F4FEA400C18BFBCF17F4F38BF70471F
:102EA000C3F12003994008BF20F00100BCF17F4F1F
:102EB00038BF7047A0F1C04000F0FFB84FEA3C00B7
:102EC000000A40EBC25028BF1CF0FF0F4FEA400C35
:102ED000E6D018BFBCF17F4F38BF7047EAE79CEAE5
:102EE000026F05D010EA5C0F08BF00F00040704789
:102EF00010B500F09CF800BF64FBBE3E10F000412E
:102F000048BF4042B0FA80F310FA03F2C3F19D03C8
:102F10000BD051EAC35101EB1220530638BF704762
:102F200000F1010008BF20F0010070474FF47F0C52
:102F30001CEAD0121EBF1CEAD11392EA0C0F93EACE
:102F40000C0F00F0478090EA010F48BF42F48072F6
:102F50004FF0004C4CEA00204CEA012102EB030246
:102F6000A0FB0113A2F50002002918BF43F00103E2
:102F70005B0028BF4FEA330342EB22425FEA132C87
:102F80004CEBC2502EBFBCEB436FB2F57C0F7047C9
:102F90004FEA036CBCF1004F08BF20F00100B2F50E
:102FA0007C0F38BF70470BD582F0FF0212F5803FCF
:102FB000C8BF704700F1C040D8BF00F00040704764
:102FC00000F5000C5FEA4C0C48BF7047B0F1C04000
:102FD00000F073B80CEAD11390EA010F48BF42F435
:102FE0008072624538BF634504D280EA010000F078
:102FF0000040704710B500F01AF800BF8900013E8C
:1030000000F007B800F009B85FEA410C5FEA1C6CF9
:1030100008D080EA010000F050B85FEA400C5FEA97
:103020001C6CF6D14FF00040A0F5800070470EF107
:10303000020E2EF0030E5EF8044B244204D44FEA35
:103040004102B2F17F4F11D84FEA4003B3F17F4FF5
:103050000CD80ED14FEAD07C0CEB4C0C0CF1020CCE
:10306000B2F17F4F08BF4CEBD17C04E04FF0080C6D
:1030700001E04FEAD17C0CEB4C0324FA03F404F09A
:103080000704B4F1040C06D20EEB840CBDE810402A
:103090004CF0010C6047DFE80CF0070802024FF02B
:1030A0000040A0F5800010BD0846420018BFD2F1D4
:1030B000807288BF00F0004010BDFF2141EAD0506F
:1030C000C005704790EA010F48BF81F000413FF50D
:1030D000BAAE421A04D882F00042A0EB02001144BA
:1030E0004FEAD052A2EBD1534FF07F4C1CEA410F74
:1030F00018BF9CEA026F4AD04FF0004C4CEA002007
:103100004CEA012121FA03FCB0EB0C0C0FD412F0B5
:10311000FE0F36D05FEA4C001DD5001240EBC250C6
:1031200038BF70471CF03F0F18BF70470BE05FEAD5
:103130001C20A2F1010240EBC25038BF70471CF0C6
:103140007F0F18BF7047C3F12003994014BF401E82
:1031500020F0010070474FEA1223800808BF704733
:10316000B0FA80FCA2EB0C02CCF1280C60FA0CF057
:1031700093EA122F04BF00EBC25070474FEAC370AE
:103180007047130A5FEADC1008BF7047F6E79CEA55
:10319000026F04D010EA5C0F08BF0020704710B522
:1031A000FFF745FF40DFF63E81F0004070470CF02E
:1031B0000F03092B08BF082000F059800A2B0BD001
:1031C000082B18BF704708BF1CF0400F0AD04FF003
:1031D00000004FF0000170471CF0400F18BF4FF087
:1031E000004070471CF0100F08D000F07F4220F024
:1031F000704342EAD3014FEA4370704700F06040E9
:1032000021F07F4242EA000201F07F4040EA727002
:1032100070474FF0FF0C4CF4E06C1CEA11531CBFDC
:103220009CEA030C9445C2BFDA4201EB025170479D
:10323000002B0DD0BCF1000F0FD001F00041002A8F
:10324000A4BF41F0E04141F07F614FF000007047C2
:1032500001F000414FF00000704750EA01334FF099
:103260009B0C18BF4CF0806C7FF4D2A870471CF404
:10327000801F11D01CF4E02F03D06FEACC3149003D
:1032800070474FF04050EFF3008222F0704242EA64
:10329000000282F3008870474FF000007047000082
:1032A000000000000000F03F000000000000F83FB8
:1032B00000000000000000000000004003B8E23FF2
:1032C000000000000000000006D0CF43EBFD4C3EA4
:1032D000033333333333E33FFFAB6FDBB66DDB3F99
:1032E0004D268F515555D53F01411DA96074D13FE1
:1032F00065DBC9934A86CD3FEF4E454A287ECA3FDB
:103300003E5555555555C53F93BDBE166CC166BF5C
:103310002CDE25AF6A56113FF16BD2C541BDBBBE55
:10332000D0A4BE726937663E0000000000000000B5
:103330000000000000000000010203040607080965
:10334000603300080000002004000000280100088D
:103350006433000808000020201000004401000829
:0433600000A24A0479
:040000050800018965
:00000001FF
